:100000000C9468000C9440050C9419050C94BF05E1
:100010000C94BF050C94BF050C9490000C949000B8
:100020000C9490000C9490000C9490000C94900010
:100030000C9490000C9490000C9490000C94900000
:100040000C94CF040C9490000C948D050C946705CF
:100050000C9490000C9490000C9490000C949000E0
:100060000C9490000C9490000000000024002700E5
:100070002A00000000090003020000040508000037
:100080000000000000000000000000000023002627
:1000900000290000000000250028002B00040404B3
:1000A0000404040404020202020202030303030321
:1000B0000302020301020408102040800102040828
:1000C00010200102040810204080400037062F0D48
:1000D00011241FBECFEFD8E0DEBFCDBF24E0A0EFDC
:1000E000B1E001C01D92A531B207E1F711E0A0E037
:1000F000B1E0EAE8FFE102C005900D92A03FB10730
:10010000D9F710E0C7E6D0E004C02197FE010E94B5
:100110009E0DC636D107C9F70E9445080C94B80F4A
:100120000C94000090E0FC01EE58FF4F2491FC017C
:10013000EC54FF4F3491FC01E356FF4FE491EE2362
:10014000C9F0222339F0243001F1A8F4223069F1FA
:10015000233079F1F0E0EE0FFF1FED56FF4FA59130
:10016000B4918FB7F894EC91611126C030953E237D
:100170003C938FBF0895283071F0293091F02530DD
:1001800049F7809180008F7D03C0809180008F7738
:1001900080938000DFCF8091B0008F778093B00094
:1001A000D9CF8091B0008F7DF9CF84B58F7784BD92
:1001B000D1CF84B58F7DFBCF3E2BDACFCF93DF93AA
:1001C00090E0FC01EC54FF4F249183569F4FFC01BB
:1001D00084918823D1F090E0880F991FFC01E859A1
:1001E000FF4FA591B491FC01ED56FF4FC591D491FD
:1001F00061110EC09FB7F8948C91E22FE0958E2389
:100200008C932881E223E8839FBFDF91CF910895EB
:100210008FB7F894EC91E22BEC938FBFF6CF3FB7FA
:10022000F89480913B0290913C02A0913D02B091E4
:100230003E0226B5A89B05C02F3F19F00196A11DCF
:10024000B11D3FBFBA2FA92F982F8827BC01CD0120
:10025000620F711D811D911D43E0660F771F881F7E
:10026000991F4A95D1F708958F929F92AF92BF92AE
:10027000CF92DF92EF92FF924B015C010E940F013F
:100280006B017C010E940F016C197D098E099F0989
:10029000683E734081059105A8F321E0821A910818
:1002A000A108B10888EEC80E83E0D81EE11CF11C3D
:1002B00081149104A104B10429F7FF90EF90DF901D
:1002C000CF90BF90AF909F908F900895089508951C
:1002D000AF92BF92CF92DF92EF92FF920F931F9354
:1002E000CF93DF936C017B018B01040F151FEB0192
:1002F0005E01AE18BF08C017D10759F06991D60149
:10030000ED91FC910190F081E02DC6010995892BBA
:1003100079F7C501DF91CF911F910F91FF90EF9079
:10032000DF90CF90BF90AF900895FC01538D448D26
:10033000252F30E0842F90E0821B930B541710F090
:10034000CF96089501970895FC01918D828D98179D
:1003500061F0A28DAE0FBF2FB11D5D968C91928D75
:100360009F5F9F73928F90E008958FEF9FEF0895A6
:10037000FC01918D828D981731F0828DE80FF11D6F
:10038000858D90E008958FEF9FEF0895FC01918D8A
:10039000228D892F90E0805C9F4F821B91098F7383
:1003A000992708958FE392E00E94C60121E0892BEE
:1003B00009F420E0822F089580E090E0892B29F055
:1003C0000E94D20181110C9400000895FC01A48DBB
:1003D000A80FB92FB11DA35ABF4F2C91848D90E067
:1003E00001968F739927848FA689B7892C93A0894A
:1003F000B1898C91837080648C93938D848D9813D4
:1004000006C00288F389E02D80818F7D8083089566
:10041000EF92FF920F931F93CF93DF93EC0181E054
:10042000888F9B8D8C8D98131AC0E889F9898081FB
:1004300085FF15C09FB7F894EE89FF896083E8892E
:10044000F98980818370806480839FBF81E090E020
:10045000DF91CF911F910F91FF90EF900895F62EAD
:100460000B8D10E00F5F1F4F0F731127E02E8C8D47
:100470008E110CC00FB607FCFACFE889F98980818C
:1004800085FFF5CFCE010E94E601F1CFEB8DEC0F99
:10049000FD2FF11DE35AFF4FF0829FB7F8940B8FA9
:1004A000EA89FB8980818062CFCFCF93DF93EC0113
:1004B000888D8823B9F0AA89BB89E889F9898C914C
:1004C00085FD03C0808186FD0DC00FB607FCF7CF08
:1004D0008C9185FFF2CF808185FFEDCFCE010E9408
:1004E000E601E9CFDF91CF9108952091320230915A
:1004F00033022817390771F490913002809131024C
:10050000981741F0E0913002F0E0E051FE4F808119
:1005100090E008958FEF9FEF08950895EF92FF9276
:100520000F931F93CF93DF93DC015C96ED90FC90CB
:100530005D97E114F10479F481E090E013969C93C7
:100540008E93129790E080E0DF91CF911F910F91F1
:10055000FF90EF9008955196ED91FC91529750962F
:100560008C915097982F90950FB75E962C915E972F
:10057000122F127021FD6095F8942081112319F13A
:10058000282B2083E7012197F1F728E0462F50E040
:10059000308160FF1AC0382B3083E7012197F1F7D3
:1005A000BA0175956795215089F7112381F08081F3
:1005B000892380830FBF5C968D919C910197F1F701
:1005C00081E090E0C1CF2923DCCF3923E5CF9081B2
:1005D000892BEFCF2091320230913302281739074F
:1005E00061F4809131022091300290E0805C9F4F55
:1005F000821B91098F739927089590E080E00895F8
:10060000209132023091330228173907B9F49091C2
:10061000300280913102981789F0E0913002F0E0C9
:10062000E051FE4F80812091300230E02F5F3F4F3C
:100630002F7333272093300290E008958FEF9FEFC0
:1006400008950F931F93CF93DF93EC01062F142F80
:1006500060E088890E9492009C858D859CBD8DBD3F
:100660000EBD00000DB407FEFDCF8EB51EBD00000F
:100670000DB407FEFDCF1EB561E088890E9492008F
:10068000812FDF91CF911F910F91089540E00C943D
:1006900021030F931F93CF93DF93EC01E881F9813E
:1006A0000084F185E02D0995892BB1F06DE0CE0134
:1006B0000E944603082F60E0CE010E944603182FD7
:1006C000402F6DE8CE010E942103812F90E0DF9141
:1006D000CF911F910F9108958FEF9FEFF8CFCF9398
:1006E000DF93EC01E881F9810084F185E02D099523
:1006F000892B69F08A8D9B8D01969B8F8A8F60E094
:10070000CE010E94460390E0DF91CF9108958FEFD4
:100710009FEFFACFCF93DF93EC0163E10E94460392
:1007200090E02A8D3B8D821B930BDF91CF91089532
:10073000AF92BF92CF92DF92FF920F931F93CF930E
:10074000DF936C015B01EA0162E20E944603F82E2E
:1007500090E09C012C0F3D1F2F3F310529F020F028
:10076000CFEFD0E0C81BD90B8501AC0EBD1E0A151A
:100770001B0541F0F80141918F0160E8C6010E941C
:100780002103F5CF4C2F4F0D62EAC6010E942103D1
:10079000CE01DF91CF911F910F91FF90DF90CF900D
:1007A000BF90AF900895CF93DF931F92CDB7DEB780
:1007B0006983DC01ED91FC910280F381E02D41E041
:1007C00050E0BE016F5F7F4F09950F90DF91CF9191
:1007D000089590E080E00895FC018091EC039091F1
:1007E000ED03009761F0608171816115710539F049
:1007F000448155810E94AA0F21E0892B09F020E055
:10080000822F0895FB0101900020E9F73197AF0195
:10081000461B570BDC01ED91FC910280F381E02D2A
:1008200009940F931F93CF93DF93EC010E9402046E
:100830008C0160E471E0CE010E940204800F911FE0
:10084000DF91CF911F910F910895CF93DF93EC012A
:1008500088819981009711F00E94400E19821882B8
:100860001D821C821B821A82DF91CF910895FC01A8
:1008700080819181009711F00C94400E08950F93A0
:100880001F93CF93DF93EC0188819981009759F0F2
:100890002A813B812617370730F081E0DF91CF9125
:1008A0001F910F9108958B016F5F7F4F0E94C90EBA
:1008B000009759F0998388831B830A832C813D819B
:1008C000232B59F7FC011082E8CF80E0E7CFEF92AD
:1008D000FF920F931F93CF93DF936115710541F43E
:1008E00080E0DF91CF911F910F91FF90EF900895DD
:1008F00041155105B1F07B01EC010C811D81040F04
:10090000151FB8010E943F04882351F328813981C3
:100910008C819D81B701820F931F0E94A30F1D83BD
:100920000C8381E0DECFEF92FF920F931F93CF9362
:10093000DF93EC017B018A01BA010E943F0481111F
:100940000BC0CE010E942504CE01DF91CF911F91F3
:100950000F91FF90EF9008951D830C83B70188815C
:1009600099810E94A30FF0CFFB0101900020E9F7CD
:100970003197AF01461B570B0C949304FC01118275
:1009800010821382128215821482FB0101900020D2
:10099000E9F73197AF01461B570B0C9493041F9254
:1009A0000F920FB60F9211242F933F938F939F9323
:1009B000AF93BF938091370290913802A091390292
:1009C000B0913A023091360226E0230F2D3768F1BC
:1009D00029E8230F0396A11DB11D209336028093B1
:1009E000370290933802A0933902B0933A02809173
:1009F0003B0290913C02A0913D02B0913E020196D3
:100A0000A11DB11D80933B0290933C02A0933D0237
:100A1000B0933E02BF91AF919F918F913F912F91E3
:100A20000F900FBE0F901F9018950296A11DB11D3B
:100A3000D4CF1F920F920FB60F9211242F933F9392
:100A40004F935F936F937F938F939F93AF93BF93D6
:100A5000EF93FF93E0910201F09103010995FF915B
:100A6000EF91BF91AF919F918F917F916F915F9126
:100A70004F913F912F910F900FBE0F901F9018959F
:100A80001F920F920FB60F9211242F933F934F9303
:100A90005F936F937F938F939F93AF93BF93EF93E6
:100AA000FF93E0910001F09101010995FF91EF9111
:100AB000BF91AF919F918F917F916F915F914F9176
:100AC0003F912F910F900FBE0F901F9018951F927E
:100AD0000F920FB60F9211242F933F934F935F9372
:100AE0006F937F938F939F93AF93BF93EF93FF93F6
:100AF0008FE392E00E94E601FF91EF91BF91AF91E9
:100B00009F918F917F916F915F914F913F912F9125
:100B10000F900FBE0F901F9018951F920F920FB657
:100B20000F9211242F938F939F93EF93FF93E09154
:100B30004F02F09150028081E0915502F0915602EF
:100B400082FD1BC09081809158028F5F8F7320912E
:100B50005902821741F0E0915802F0E0E15CFD4F4C
:100B6000958F80935802FF91EF919F918F912F91D4
:100B70000F900FBE0F901F9018958081F4CF1F9299
:100B80000F920FB60F9211242F933F934F935F93C1
:100B90006F937F938F939F93AF93BF93EF93FF9345
:100BA000E0913202F0913302309749F0A685B78583
:100BB0008585968D91FF14C09C918923A1F4FF91A6
:100BC000EF91BF91AF919F918F917F916F915F91C5
:100BD0004F913F912F910F900FBE0F901F9018953E
:100BE0009C91892361F7A389B4899C91858980951B
:100BF00089238C93868997890197F1F7608D718D90
:100C0000A685B785558538E020E0CB010197F1F73F
:100C1000822F90E095958795282F4C91452309F0D8
:100C20002068315091F7868D81FD209580913102A9
:100C300090E001968F73992730913002381799F020
:100C4000A0913102B0E0A051BE4F2C9380933102AD
:100C5000828D938D0197F1F7A389B4898C91958941
:100C6000892B8C93ACCF868D8160868FF1CFCF930B
:100C7000109242021092410288EE93E0A0E0B0E0B0
:100C80008093430290934402A0934502B09346029E
:100C90002EE031E03093400220933F0225EC30E01B
:100CA00030934C0220934B0224EC30E030934E0200
:100CB00020934D0220EC30E03093500220934F02FD
:100CC00021EC30E0309352022093510222EC30E0CC
:100CD000309354022093530226EC30E030935602B6
:100CE00020935502109258021092590210925A0203
:100CF00010925B021092E0021092DF0220E231E0DB
:100D00003093DE022093DD0220E52093E90261E0CA
:100D10006093EA022CED32E03093EC022093EB0278
:100D20002AE030E03093EE022093ED0229E030E03B
:100D30003093F0022093EF0222E030E03093F20291
:100D40002093F1021092F3021092F4021092F50235
:100D50001092F6021092F8021092F7021092FA0224
:100D60001092F9021092FC021092FB021092FE0205
:100D70001092FD021092E1021092E2021092E30240
:100D80001092E4021092F5031092F4038093F6039C
:100D90009093F703A093F803B093F90382E391E0F3
:100DA0009093F3038093F2031092090410920804C5
:100DB00010920B0410920A0410920D0410920C046D
:100DC00010920F0410920E04809110048E7F8D7F7C
:100DD0008093100486958170682783E00E949200BA
:100DE00061E083E00E94DE00E7EBF0E0E491E09355
:100DF0000204E0EAF0E0E491F0E0EE0FFF1FED56B0
:100E0000FF4F85919491909304048093030460E0D4
:100E100082E00E94DE008091100481FD04C061E048
:100E200082E00E949200C2E0C093FE03E6EBF0E095
:100E3000E491E093FF03EFE9F0E0E491F0E0EE0FDE
:100E4000FF1FE757FF4F8591949190930104809382
:100E5000000462E471E08CEE93E00E94BE0463E45F
:100E600071E086EE93E00E94BE0462E471E080EEE1
:100E700093E00E94BE0462E471E08AED93E00E9478
:100E8000BE0410922D0310922E0310923003109284
:100E90002F031092310310923203109233031092F9
:100EA00034031092350310923703109236031092D8
:100EB00038031092390310923A0310923B031092B8
:100EC0003C0310923E0310923D0310923F03109298
:100ED0004003109241031092420310924303109278
:100EE0004503109244031092460310924703109258
:100EF00048031092490310924A0310924F03109234
:100F00005003109251031092520310925303109207
:100F1000540310925D0310925E0310925F031092CF
:100F20006003109261031092620310926B0310929F
:100F30006C0310927103109272031092730310925B
:100F400074031092790310927A0310927F03109227
:100F500080031092810310928203109287031092F3
:100F6000880310928D0310928E0310928F031092BB
:100F70009003109295031092960310929B03109287
:100F80009C0310929D0310929E031092A303109253
:100F9000A4031092A9031092AA031092AB0310921B
:100FA000AC031092B1031092B203C093C20310922B
:100FB000C3031092C4031092C5031092C70310928A
:100FC000C6031092C9031092C8031092CA0310926C
:100FD000CB031092CC031092CD031092CE0310924B
:100FE000CF031092D0031092D1031092D20310922B
:100FF000D3031092D4031092D5031092D60310920B
:10100000D7031092D8031092D9031092B303109211
:1010100000031092FF02E1E0F3E084E0DF011D92A3
:101020008A95E9F7109206031092050389E0E7E03C
:10103000F3E0DF01982F1D929A95E9F710921103C2
:1010400010921003E2E1F3E0DF01982F1D929A95D0
:10105000E9F710921C0310921B03EDE1F3E0DF01AE
:101060001D928A95E9F78DE293E090932703809390
:101070002603109228031092290310922A0310923B
:101080002C0310922B03CF910895CF93DF93CDB70C
:10109000DEB762970FB6F894DEBF0FBECDBF78946F
:1010A00084B5836084BD85B5836085BD80916E0005
:1010B000816080936E0092E0909381008091810026
:1010C00081608093810080918000816080938000A6
:1010D0008091B10084608093B1008091B000816004
:1010E0008093B00086E880937A001092C100E0916E
:1010F0004F02F09150029083E0914B02F0914C022C
:101100001082E0914D02F0914E0287E680831092AA
:101110005702E0915302F091540286E08083E091FF
:101120005102F0915202808188698083E0915102DE
:10113000F091520280818F7D808310920D04109275
:101140000C0410920B0410920A04109209041092DD
:1011500008048DEC90E090930F0480930E0480912E
:10116000FE03873108F04BC025E530E030930904D9
:10117000209308042BEC30E030930B0420930A04F6
:1011800020E930E030930D0420930C042091680096
:1011900094E0883054F091E08E303CF092E084315D
:1011A00024F091E0863109F490E0922B909368004E
:1011B0002DE630E0883074F08E300CF46BC2843150
:1011C0003CF086310CF466C230E020E0863111F448
:1011D0002CE630E0309306042093050488300CF0B0
:1011E0005CC291E001C0990F8A95EAF7892F80933C
:1011F000070480910E0490910F040197F1F78091FC
:101200000C0490910D04892B49F1E0913202F09188
:10121000330223E0E23FF20709F1309739F0A38966
:10122000B4899C918589809589238C938091100441
:101230008E7F80931004109231021092300282EF60
:1012400093E09093330280933202E0910504F09191
:101250000604808190910704892B80838AE090E0C6
:101260009093EE028093ED028FE090E09093F00275
:101270008093EF0280E190E09093F2028093F1027C
:1012800061E08AE00E94DE0061E08091ED020E9450
:1012900092008091EF029091F0028F3F9807C9F081
:1012A00061E00E94DE0060E08091EF020E94920007
:1012B0006AE070E080E090E00E94340161E080919B
:1012C000EF020E9492006AE070E080E090E00E94ED
:1012D00034011FB7F89480913402811127C0E7EAE6
:1012E000F0E08491EEEBF0E09491E82FF0E0EE0F67
:1012F000FF1FE859FF4FA591B491EC91E92321F428
:1013000061E08AE00E94920061E08AE00E94DE00D3
:101310008CB580618CBD8CB580648CBD61E08DE046
:101320000E94DE0061E08BE00E94DE0080913402CA
:101330008F5F809334021FBF62E48DED92E00E94C4
:101340004603823109F05AC040E861E88DED92E031
:101350000E94210380E098E3ACE9BCE18093F302B2
:101360009093F402A093F502B093F60248E766E882
:101370008DED92E00E94210340E067E88DED92E060
:101380000E94210340E068E88DED92E00E94210375
:1013900040E06EE88DED92E00E94210340E06FE8AE
:1013A0008DED92E00E9421036CE08DED92E00E94B1
:1013B0004603482F43606CE88DED92E00E942103C4
:1013C00044E066EA8DED92E00E94210344E86DEC72
:1013D0008DED92E00E9421034BE26BE88DED92E0EF
:1013E0000E9421034FE869E88DED92E00E942103FD
:1013F00041E861E88DED92E00E94210344E86DEC44
:101400008DED92E00E9421034BE26BE88DED92E0BE
:101410000E9421034AE869E88DED92E00E942103D1
:101420008FB7F89440913702509138026091390299
:1014300070913A028FBF61E571E082EF93E00E9404
:10144000110468EE73E080E090E00E94340164E5EE
:1014500071E082EF93E00E94110468EE73E080E097
:1014600090E00E9434016EE571E082EF93E00E940B
:10147000110468EE73E080E090E00E94340180E0A7
:10148000A82E80E0B82E7724739482EF93E00E9418
:10149000EA02892B09F4BDC182EF93E00E940003A8
:1014A000182F89831A8241E050E0BE016F5F7F4FA1
:1014B0008CEE93E00E9467041A3039F7C090EC0379
:1014C000D090ED03C114D10449F00091F0031091C4
:1014D000F10376010115110509F0EEC08091F003CA
:1014E0009091F103892B09F4CEC060E771E0CE0141
:1014F00001960E94BE042091F0033091F1038D818A
:101500009E8110E02817390728F0CE0101960E942D
:10151000EC03182FCE0101960E943704112309F421
:1015200029C1E090F003F090F103E114F10409F413
:10153000FFC00091EC031091ED0362E270E0C8017E
:101540000E948F0F009709F4F3C09C01201B310B00
:1015500089010F5F1F4F0E151F0508F0ECC0E090CA
:10156000EC03F090ED0362E270E0C701800F911F81
:101570000E948F0F009709F4DEC08E199F096C013D
:101580008017910710F068018C0162E471E0CE01D0
:1015900001960E94BE04E090F003F090F103CE1497
:1015A000DF0410F50E151F0508F47801E091EC0337
:1015B000F091ED03EE0DFF1D108110826091EC03A0
:1015C0007091ED036C0D7D1DCE01019661157105C5
:1015D00009F4B4C00E94B4048091EC039091ED032F
:1015E000E80EF91EF70110838091E0039091E1036A
:1015F000009709F4A8C069817A816115710509F421
:10160000A0C04091E2035091E3032D813E81421737
:10161000530708F496C00E94A30F8D819E8190937A
:10162000E5038093E4031E821D82CE0101960E9491
:10163000370466E771E0CE0101960E94BE04409136
:10164000E4035091E5036091E0037091E103CE0162
:1016500001960E946704811104C0CE0101960E9488
:1016600025044D815E8169817A818FE392E00E9439
:10167000680160E471E08FE392E00E940204CE0111
:1016800001960E94370462E471E08CEE93E00E94C0
:10169000B404FBCE2BE630E09DCD8E3014F48850A0
:1016A000A0CD863114F48E509CCD863111F080E0AF
:1016B0009ECD80E49CCD740147018FEF881A980A73
:1016C000F7018081082E000C990B0E945B0D892B7D
:1016D00091F7015011090C0D1D1DF8018081082E94
:1016E000000C990B0E945B0D892B31F00E151F0524
:1016F00018F001501109F1CFA8014F5F5F4F4E194B
:101700005F095093F1034093F003CE14DF0420F4FB
:10171000B701C6010E94860FE091EC03F091ED0342
:101720008091F0039091F103E80FF91F1082D6CE5B
:101730000FEF1FEF0ECF8FEF9FEF21CF0E942504F9
:101740004BCF0E94400E89819A819093E103809350
:10175000E0038B819C819093E3038093E2038D816E
:101760009E819093E5038093E4031A8219821C8280
:101770001B8259CF60E771E0CE0107960E94BE043C
:101780002091F0033091F1038B859C852817390750
:1017900038F0CE0107960E94EC0310E081111BC0C7
:1017A0006CE871E0CE0101960E94BE042091F00326
:1017B0003091F1038D819E8111E02817390738F0AF
:1017C000CE0101960E94EC0311E0811110E0CE01E0
:1017D00001960E943704CE0107960E943704112318
:1017E00009F451CF6091EC037091ED03611571051F
:1017F00059F04091F0035091F1038AED93E00E947B
:101800009304709235023FCF8AED93E00E94250445
:10181000F8CF80913502882309F4B9C02091E40300
:101820003091E5038091EA039091EB032817390783
:10183000B1F48091E0039091E1036091E60370912F
:10184000E703009799F06115710531F4232BD9F066
:10185000FC01808190E015C00E949A0F12C06CEAD2
:1018600071E08FE392E00E94110483C0611571055D
:1018700051F0232B41F0FB01808190E091958195FF
:101880009109892B61F76FE871E0CE0107960E94FC
:10189000BE041E861D86188A1F861A8A198A6091C0
:1018A000E0037091E1036115710541F04091E4039B
:1018B0005091E503CE010D960E94930462EA71E017
:1018C000CE0101960E94BE0449895A896D857E85A4
:1018D000CE0101960E946704811104C0CE010196D9
:1018E0000E94250441E050E06AEA71E0CE010196D1
:1018F0000E946704811104C0CE0101960E94250454
:101900004D815E8169817A8182EF93E00E94680156
:1019100060E471E082EF93E00E940204CE01019640
:101920000E94370460ED77E080E090E00E9434018F
:101930004B855C856F81788582EF93E00E9468011A
:1019400064EF71E080E090E00E9434016AE182EF90
:1019500093E00E948E0268E873E180E090E00E94CC
:101960003401CE010D960E943704CE0107960E94E5
:1019700037041092350262E471E080EE93E00E9439
:10198000B40462E471E08AED93E00E94B40468EE6E
:1019900073E080E090E00E94340164EF71E080E049
:1019A00090E00E94340161E08DED92E00E944603D8
:1019B0008370833079F162E18DED92E00E944603FD
:1019C00083FF06C048E062E98DED92E00E942103AA
:1019D00041E861E88DED92E00E9421031092FA0245
:1019E0001092F9026DE18DED92E00E944603482FBE
:1019F0004E7F6DE98DED92E00E94210340E06DE89D
:101A00008DED92E00E94210340E062EA8DED92E0CC
:101A10000E9421036CED71E08DED92E00E940204C2
:101A200043E861E88DED92E00E94210362E18DEDD3
:101A300092E00E94460383FFF9CF48E062E98DED12
:101A400092E00E942103A114B10409F41ECD0E946A
:101A5000D201882309F417CD0E94000014CD8AED2D
:101A600093E00E94370480EE93E00E94370486EEF4
:101A700093E00E9437048CEE93E00E94370482E3E7
:101A800091E09093F3038093F2038091320290915E
:101A90003302825F934071F4E0910504F0910604F3
:101AA000908180910704809589238083109233026E
:101AB00010923202089591110C94640D803219F045
:101AC00089508550C8F708959927882708952F923F
:101AD0003F924F925F926F927F928F929F92AF92BE
:101AE000BF92CF92DF92EF92FF920F931F93CF930B
:101AF000DF93CDB7DEB7CA1BDB0B0FB6F894DEBFA2
:101B00000FBECDBF09942A88398848885F846E84C7
:101B10007D848C849B84AA84B984C884DF80EE8011
:101B2000FD800C811B81AA81B981CE0FD11D0FB61A
:101B3000F894DEBF0FBECDBFED010895EE0FFF1F7D
:101B40000590F491E02D09940F931F93CF93DF93A9
:101B50008230910510F482E090E0E0911304F0915E
:101B6000140430E020E0B0E0A0E0309799F42115B3
:101B7000310509F44AC0281B390B24303105D8F54A
:101B80008A819B816115710589F1FB0193838283B1
:101B9000FE0111C04081518102811381481759070C
:101BA000E0F04817590799F4109761F012960C93DA
:101BB000129713961C933296CF01DF91CF911F910C
:101BC0000F9108950093130410931404F4CF21157A
:101BD000310551F04217530738F0A901DB019A0192
:101BE000BD01DF01F801C1CFEF01F9CF90931404DB
:101BF00080931304CDCFFE01E20FF31F81939193E5
:101C00002250310939832883D7CF20911104309194
:101C10001204232B41F420910601309107013093E7
:101C20001204209311042091040130910501211523
:101C3000310541F42DB73EB740910801509109019B
:101C4000241B350BE0911104F0911204E217F30705
:101C5000A0F42E1B3F0B2817390778F0AC014E5F1C
:101C60005F4F2417350748F04E0F5F1F5093120443
:101C700040931104819391939FCFF0E0E0E09CCFDB
:101C8000CF93DF930097E9F0FC0132971382128221
:101C9000A0911304B0911404ED0130E020E01097FE
:101CA000A1F420813181820F931F20911104309182
:101CB00012042817390709F061C0F0931204E09369
:101CC0001104DF91CF910895EA01CE17DF07E8F5FF
:101CD0004A815B819E0141155105B1F7E901FB8302
:101CE000EA8349915991C40FD51FEC17FD0761F4A0
:101CF000808191810296840F951FE90199838883E1
:101D0000828193819B838A83F0E0E0E012968D913B
:101D10009C9113970097B9F52D913C911197CD01A6
:101D20000296820F931F20911104309112042817FC
:101D3000390739F6309751F51092140410921304B4
:101D4000B0931204A0931104BCCFD383C28340810B
:101D50005181840F951FC817D90761F44E5F5F4FFB
:101D600088819981480F591F518340838A819B81C3
:101D7000938382832115310509F0B0CFF0931404C9
:101D8000E09313049ECFFD01DC01C0CF13821282C9
:101D9000D7CFB0E0A0E0EFECFEE00C94690D8C0131
:101DA000009751F4CB010E94A40D8C01C801CDB75E
:101DB000DEB7E0E10C94850DFC01E60FF71F9C01F6
:101DC00022503109E217F30708F49DC0D901CD91E3
:101DD000DC911197C617D70798F0C530D10530F3BD
:101DE000CE0104978617970708F3C61BD70B2297D7
:101DF000C193D1936D937C93CF010E94400ED6CFB7
:101E00005B01AC1ABD0A4C018C0E9D1EA0911304FF
:101E1000B0911404512C412CF12CE12C109731F588
:101E200080911104909112048815990509F05CC005
:101E30004616570608F058C080910401909105019C
:101E4000009741F48DB79EB7409108015091090168
:101E5000841B950BE817F90708F055C0F09312049E
:101E6000E0931104F90171836083A0CF8D919C915F
:101E7000119712966C90129713967C901397A81551
:101E8000B90559F56C0142E0C40ED11CCA14DB043B
:101E900020F1AC014A195B09DA011296159780F01E
:101EA0006282738251834083D9016D937C93E114E4
:101EB000F10471F0D7011396FC93EE93129776CF4D
:101EC00022968C0F9D1FF90191838083F301EFCF40
:101ED000F0931404E093130469CF4816590608F4EC
:101EE0002C017D01D3019ACFCB010E94A40D7C016E
:101EF000009749F0AE01B8010E94860FC8010E9408
:101F0000400E870153CF10E000E050CFFB01DC0111
:101F100002C001900D9241505040D8F70895FC0145
:101F20008191861721F08823D9F799270895319751
:101F3000CF010895FB01DC018D9101908019011002
:101F4000D9F3990B0895FB01DC0101900D9200205B
:101F5000E1F70895FB01DC014150504030F08D91D4
:101F60000190801919F40020B9F7881B990B089586
:101F700010E0C7E6D0E004C0FE010E949E0D21964D
:0A1F8000C836D107C9F7F894FFCF67
:101F8A00670100000000150480000000000008023C
:101F9A00680195015502C601A401B80100000000BC
:101FAA00D3039803E9038D028A036F0349030000F0
:101FBA0000008E026801E9038D02EA02000375023D
:101FCA000D0A002B33383136323837373536383840
:101FDA000041540041542B434D47463D3100415482
:101FEA002B434E4D493D322C322C302C302C3000B4
:101FFA002B434D543A005072696D6C6A656E6120CC
:10200A00706F72756B61206F643A20004F4B003419
:10201A00352E3233343232382C31392E3733343884
:10202A00360041542B434D47533D2200506F727581
:10203A006B61206E696A65206F6420646F7A766FBF
:10204A006C6A656E6F672062726F6A612C206E65BA
:10205A00206F64676F766172616D2E0034352E329F
:10206A0034343232382C31392E373635343836005A
:00000001FF
